{
  "_format": "hh-sol-artifact-1",
  "contractName": "Flashloan",
  "sourceName": "contracts/Flashloan.sol",
  "abi": [
    {
      "anonymous": false,
      "inputs": [
        {
          "indexed": true,
          "internalType": "address",
          "name": "previousOwner",
          "type": "address"
        },
        {
          "indexed": true,
          "internalType": "address",
          "name": "newOwner",
          "type": "address"
        }
      ],
      "name": "OwnershipTransferred",
      "type": "event"
    },
    {
      "anonymous": false,
      "inputs": [
        {
          "indexed": false,
          "internalType": "address",
          "name": "recipient",
          "type": "address"
        },
        {
          "indexed": false,
          "internalType": "uint256",
          "name": "profit",
          "type": "uint256"
        }
      ],
      "name": "SentProfit",
      "type": "event"
    },
    {
      "anonymous": false,
      "inputs": [
        {
          "indexed": false,
          "internalType": "address",
          "name": "token",
          "type": "address"
        },
        {
          "indexed": false,
          "internalType": "uint256",
          "name": "amount",
          "type": "uint256"
        }
      ],
      "name": "SwapFinished",
      "type": "event"
    },
    {
      "anonymous": false,
      "inputs": [
        {
          "indexed": true,
          "internalType": "address",
          "name": "sender",
          "type": "address"
        },
        {
          "indexed": false,
          "internalType": "uint256",
          "name": "amount",
          "type": "uint256"
        }
      ],
      "name": "Withdrawal",
      "type": "event"
    },
    {
      "inputs": [
        {
          "internalType": "address",
          "name": "sender",
          "type": "address"
        },
        {
          "internalType": "uint256",
          "name": "baseAmount",
          "type": "uint256"
        },
        {
          "internalType": "uint256",
          "name": "quoteAmount",
          "type": "uint256"
        },
        {
          "internalType": "bytes",
          "name": "data",
          "type": "bytes"
        }
      ],
      "name": "DPPFlashLoanCall",
      "outputs": [],
      "stateMutability": "nonpayable",
      "type": "function"
    },
    {
      "inputs": [
        {
          "internalType": "address",
          "name": "sender",
          "type": "address"
        },
        {
          "internalType": "uint256",
          "name": "baseAmount",
          "type": "uint256"
        },
        {
          "internalType": "uint256",
          "name": "quoteAmount",
          "type": "uint256"
        },
        {
          "internalType": "bytes",
          "name": "data",
          "type": "bytes"
        }
      ],
      "name": "DSPFlashLoanCall",
      "outputs": [],
      "stateMutability": "nonpayable",
      "type": "function"
    },
    {
      "inputs": [
        {
          "internalType": "address",
          "name": "sender",
          "type": "address"
        },
        {
          "internalType": "uint256",
          "name": "baseAmount",
          "type": "uint256"
        },
        {
          "internalType": "uint256",
          "name": "quoteAmount",
          "type": "uint256"
        },
        {
          "internalType": "bytes",
          "name": "data",
          "type": "bytes"
        }
      ],
      "name": "DVMFlashLoanCall",
      "outputs": [],
      "stateMutability": "nonpayable",
      "type": "function"
    },
    {
      "inputs": [
        {
          "components": [
            {
              "internalType": "address",
              "name": "flashLoanPool",
              "type": "address"
            },
            {
              "internalType": "uint256",
              "name": "loanAmount",
              "type": "uint256"
            },
            {
              "components": [
                {
                  "components": [
                    {
                      "internalType": "uint8",
                      "name": "protocol",
                      "type": "uint8"
                    },
                    {
                      "internalType": "bytes",
                      "name": "data",
                      "type": "bytes"
                    },
                    {
                      "internalType": "address[]",
                      "name": "path",
                      "type": "address[]"
                    }
                  ],
                  "internalType": "struct IFlashloan.Hop[]",
                  "name": "hops",
                  "type": "tuple[]"
                },
                {
                  "internalType": "uint16",
                  "name": "part",
                  "type": "uint16"
                }
              ],
              "internalType": "struct IFlashloan.Route[]",
              "name": "routes",
              "type": "tuple[]"
            }
          ],
          "internalType": "struct IFlashloan.FlashParams",
          "name": "params",
          "type": "tuple"
        }
      ],
      "name": "dodoFlashLoan",
      "outputs": [],
      "stateMutability": "nonpayable",
      "type": "function"
    },
    {
      "inputs": [],
      "name": "owner",
      "outputs": [
        {
          "internalType": "address",
          "name": "",
          "type": "address"
        }
      ],
      "stateMutability": "view",
      "type": "function"
    },
    {
      "inputs": [],
      "name": "renounceOwnership",
      "outputs": [],
      "stateMutability": "nonpayable",
      "type": "function"
    },
    {
      "inputs": [
        {
          "internalType": "address",
          "name": "newOwner",
          "type": "address"
        }
      ],
      "name": "transferOwnership",
      "outputs": [],
      "stateMutability": "nonpayable",
      "type": "function"
    },
    {
      "inputs": [
        {
          "internalType": "contract IERC20",
          "name": "token",
          "type": "address"
        },
        {
          "internalType": "address",
          "name": "_to",
          "type": "address"
        },
        {
          "internalType": "uint256",
          "name": "_value",
          "type": "uint256"
        }
      ],
      "name": "withdrawToken",
      "outputs": [],
      "stateMutability": "nonpayable",
      "type": "function"
    }
  ],
  "bytecode": "0x608060405234801561001057600080fd5b5061001a33610023565b60018055610073565b600080546001600160a01b038381166001600160a01b0319831681178455604051919092169283917f8be0079c531659141344cd1fd0a4f28419497f9722a3daafe3b4186f6b6457e09190a35050565b612ea880620000836000396000f3fe608060405234801561001057600080fd5b50600436106100885760003560e01c80638da5cb5b1161005b5780638da5cb5b146100d0578063d5b99797146100bd578063eb2021c3146100bd578063f2fde38b146100ff57600080fd5b806301e336671461008d5780630cdabeba146100a2578063715018a6146100b55780637ed1f1dd146100bd575b600080fd5b6100a061009b366004612222565b610112565b005b6100a06100b036600461229a565b6102ec565b6100a0610789565b6100a06100cb366004612151565b6107e6565b60005473ffffffffffffffffffffffffffffffffffffffff166040516100f69190612986565b60405180910390f35b6100a061010d36600461208e565b6107fa565b60005473ffffffffffffffffffffffffffffffffffffffff16331461016c576040517f08c379a000000000000000000000000000000000000000000000000000000000815260040161016390612a81565b60405180910390fd5b600260015414156101a9576040517f08c379a000000000000000000000000000000000000000000000000000000000815260040161016390612ad1565b60026001556040517f70a08231000000000000000000000000000000000000000000000000000000008152819073ffffffffffffffffffffffffffffffffffffffff8516906370a0823190610202903090600401612986565b60206040518083038186803b15801561021a57600080fd5b505afa15801561022e573d6000803e3d6000fd5b505050506040513d601f19601f8201168201806040525081019061025291906122cf565b101561028a576040517f08c379a000000000000000000000000000000000000000000000000000000000815260040161016390612a71565b6102958383836108a4565b8173ffffffffffffffffffffffffffffffffffffffff167f7fcf532c15f0a6db0bd6d0e038bea71d30d808c7d98cb3bf7268a95bf5081b65826040516102db9190612b11565b60405180910390a250506001805550565b80600061033d8260400151600081518110610330577f4e487b7100000000000000000000000000000000000000000000000000000000600052603260045260246000fd5b602002602001015161094a565b90506000826000015173ffffffffffffffffffffffffffffffffffffffff16634a248d2a6040518163ffffffff1660e01b815260040160206040518083038186803b15801561038b57600080fd5b505afa15801561039f573d6000803e3d6000fd5b505050506040513d601f19601f820116820180604052508101906103c391906120ac565b73ffffffffffffffffffffffffffffffffffffffff168273ffffffffffffffffffffffffffffffffffffffff161490506000836000015173ffffffffffffffffffffffffffffffffffffffff1663d4b970466040518163ffffffff1660e01b815260040160206040518083038186803b15801561043f57600080fd5b505afa158015610453573d6000803e3d6000fd5b505050506040513d601f19601f8201168201806040525081019061047791906120ac565b73ffffffffffffffffffffffffffffffffffffffff168373ffffffffffffffffffffffffffffffffffffffff1614905081806104b05750805b6104e6576040517f08c379a000000000000000000000000000000000000000000000000000000000815260040161016390612ab1565b60408051608081018252338152865173ffffffffffffffffffffffffffffffffffffffff1660208083019190915287810151828401528783015160608301529151600092610535929101612b00565b604051602081830303815290604052905060006105898760400151600081518110610330577f4e487b7100000000000000000000000000000000000000000000000000000000600052603260045260246000fd5b9050866000015173ffffffffffffffffffffffffffffffffffffffff1663d0a494e48273ffffffffffffffffffffffffffffffffffffffff16896000015173ffffffffffffffffffffffffffffffffffffffff16634a248d2a6040518163ffffffff1660e01b815260040160206040518083038186803b15801561060c57600080fd5b505afa158015610620573d6000803e3d6000fd5b505050506040513d601f19601f8201168201806040525081019061064491906120ac565b73ffffffffffffffffffffffffffffffffffffffff161461066657600061066c565b88602001515b8373ffffffffffffffffffffffffffffffffffffffff168a6000015173ffffffffffffffffffffffffffffffffffffffff16634a248d2a6040518163ffffffff1660e01b815260040160206040518083038186803b1580156106cd57600080fd5b505afa1580156106e1573d6000803e3d6000fd5b505050506040513d601f19601f8201168201806040525081019061070591906120ac565b73ffffffffffffffffffffffffffffffffffffffff161461072a57896020015161072d565b60005b30866040518563ffffffff1660e01b815260040161074e9493929190612b72565b600060405180830381600087803b15801561076857600080fd5b505af115801561077c573d6000803e3d6000fd5b5050505050505050505050565b60005473ffffffffffffffffffffffffffffffffffffffff1633146107da576040517f08c379a000000000000000000000000000000000000000000000000000000000815260040161016390612a81565b6107e460006109de565b565b6107f38585858585610a53565b5050505050565b60005473ffffffffffffffffffffffffffffffffffffffff16331461084b576040517f08c379a000000000000000000000000000000000000000000000000000000000815260040161016390612a81565b73ffffffffffffffffffffffffffffffffffffffff8116610898576040517f08c379a000000000000000000000000000000000000000000000000000000000815260040161016390612a31565b6108a1816109de565b50565b6109458363a9059cbb60e01b84846040516024016108c3929190612a05565b604080517fffffffffffffffffffffffffffffffffffffffffffffffffffffffffffffffe08184030181529190526020810180517bffffffffffffffffffffffffffffffffffffffffffffffffffffffff167fffffffff0000000000000000000000000000000000000000000000000000000090931692909217909152610f60565b505050565b6000816000015160008151811061098a577f4e487b7100000000000000000000000000000000000000000000000000000000600052603260045260246000fd5b6020026020010151604001516000815181106109cf577f4e487b7100000000000000000000000000000000000000000000000000000000600052603260045260246000fd5b60200260200101519050919050565b6000805473ffffffffffffffffffffffffffffffffffffffff8381167fffffffffffffffffffffffff0000000000000000000000000000000000000000831681178455604051919092169283917f8be0079c531659141344cd1fd0a4f28419497f9722a3daafe3b4186f6b6457e09190a35050565b6000610a6182840184612265565b90506000610aa68260600151600081518110610330577f4e487b7100000000000000000000000000000000000000000000000000000000600052603260045260246000fd5b905081604001518173ffffffffffffffffffffffffffffffffffffffff166370a08231306040518263ffffffff1660e01b8152600401610ae69190612986565b60206040518083038186803b158015610afe57600080fd5b505afa158015610b12573d6000803e3d6000fd5b505050506040513d601f19601f82011682018060405250810190610b3691906122cf565b1015610b6e576040517f08c379a000000000000000000000000000000000000000000000000000000000815260040161016390612a41565b610b8082606001518360400151611016565b7ffdc1bd83776f7aa310fcf2b1915ae1c6c16a4cfb48ebcea2bf15febd084c03de818273ffffffffffffffffffffffffffffffffffffffff166370a08231306040518263ffffffff1660e01b8152600401610bdb9190612986565b60206040518083038186803b158015610bf357600080fd5b505afa158015610c07573d6000803e3d6000fd5b505050506040513d601f19601f82011682018060405250810190610c2b91906122cf565b604051610c39929190612a05565b60405180910390a160408083015190517f70a0823100000000000000000000000000000000000000000000000000000000815273ffffffffffffffffffffffffffffffffffffffff8316906370a0823190610c98903090600401612986565b60206040518083038186803b158015610cb057600080fd5b505afa158015610cc4573d6000803e3d6000fd5b505050506040513d601f19601f82011682018060405250810190610ce891906122cf565b1015610d20576040517f08c379a000000000000000000000000000000000000000000000000000000000815260040161016390612a91565b602082015160408084015190517fa9059cbb00000000000000000000000000000000000000000000000000000000815273ffffffffffffffffffffffffffffffffffffffff84169263a9059cbb92610d7a92600401612a05565b602060405180830381600087803b158015610d9457600080fd5b505af1158015610da8573d6000803e3d6000fd5b505050506040513d601f19601f82011682018060405250810190610dcc9190612204565b506040517f70a0823100000000000000000000000000000000000000000000000000000000815260009073ffffffffffffffffffffffffffffffffffffffff8316906370a0823190610e22903090600401612986565b60206040518083038186803b158015610e3a57600080fd5b505afa158015610e4e573d6000803e3d6000fd5b505050506040513d601f19601f82011682018060405250810190610e7291906122cf565b83516040517fa9059cbb00000000000000000000000000000000000000000000000000000000815291925073ffffffffffffffffffffffffffffffffffffffff84169163a9059cbb91610ec9918590600401612a05565b602060405180830381600087803b158015610ee357600080fd5b505af1158015610ef7573d6000803e3d6000fd5b505050506040513d601f19601f82011682018060405250810190610f1b9190612204565b5082516040517f2b312ac7b7c9b2fc53c9398d48ed2df4c1d192a03cc090b47087b2936ba0a61f91610f4e918490612a05565b60405180910390a15050505050505050565b6000610fc2826040518060400160405280602081526020017f5361666545524332303a206c6f772d6c6576656c2063616c6c206661696c65648152508573ffffffffffffffffffffffffffffffffffffffff166111839092919063ffffffff16565b8051909150156109455780806020019051810190610fe09190612204565b610945576040517f08c379a000000000000000000000000000000000000000000000000000000000815260040161016390612ac1565b816000805b82518110156110885782818151811061105d577f4e487b7100000000000000000000000000000000000000000000000000000000600052603260045260246000fd5b602002602001015160200151826110749190612c35565b91508061108081612d63565b91505061101b565b508061ffff16612710146110c8576040517f08c379a000000000000000000000000000000000000000000000000000000000815260040161016390612ae1565b60005b84518110156107f3576000611124868381518110611112577f4e487b7100000000000000000000000000000000000000000000000000000000600052603260045260246000fd5b6020026020010151602001518661119c565b9050611170868381518110611162577f4e487b7100000000000000000000000000000000000000000000000000000000600052603260045260246000fd5b6020026020010151826111b9565b508061117b81612d63565b9150506110cb565b6060611192848460008561122f565b90505b9392505050565b60006127106111af61ffff851684612c72565b6111959190612c5e565b8060005b8351518110156112295761121584600001518281518110611207577f4e487b7100000000000000000000000000000000000000000000000000000000600052603260045260246000fd5b602002602001015183611329565b91508061122181612d63565b9150506111bd565b50505050565b60608247101561126b576040517f08c379a000000000000000000000000000000000000000000000000000000000815260040161016390612a51565b843b6112a3576040517f08c379a000000000000000000000000000000000000000000000000000000000815260040161016390612aa1565b6000808673ffffffffffffffffffffffffffffffffffffffff1685876040516112cc919061297a565b60006040518083038185875af1925050503d8060008114611309576040519150601f19603f3d011682016040523d82523d6000602084013e61130e565b606091505b509150915061131e82828661138b565b979650505050505050565b815160009060ff1661134f5761134883602001518385604001516113de565b9050611385565b6008836000015160ff1610156113725761134883602001518385604001516115f1565b6111958360200151838560400151611770565b92915050565b6060831561139a575081611195565b8251156113aa5782518084602001fd5b816040517f08c379a00000000000000000000000000000000000000000000000000000000081526004016101639190612a20565b6000806000858060200190518101906113f79190612117565b91509150600082905061144c8560008151811061143d577f4e487b7100000000000000000000000000000000000000000000000000000000600052603260045260246000fd5b60200260200101518288611aa2565b8073ffffffffffffffffffffffffffffffffffffffff1663414bf389604051806101000160405280886000815181106114ae577f4e487b7100000000000000000000000000000000000000000000000000000000600052603260045260246000fd5b602002602001015173ffffffffffffffffffffffffffffffffffffffff1681526020018860018151811061150b577f4e487b7100000000000000000000000000000000000000000000000000000000600052603260045260246000fd5b602002602001015173ffffffffffffffffffffffffffffffffffffffff1681526020018562ffffff1681526020013073ffffffffffffffffffffffffffffffffffffffff16815260200142815260200189815260200160008152602001600073ffffffffffffffffffffffffffffffffffffffff168152506040518263ffffffff1660e01b815260040161159f9190612af1565b602060405180830381600087803b1580156115b957600080fd5b505af11580156115cd573d6000803e3d6000fd5b505050506040513d601f19601f8201168201806040525081019061131e91906122cf565b6000808480602001905181019061160891906120ac565b905061165683600081518110611647577f4e487b7100000000000000000000000000000000000000000000000000000000600052603260045260246000fd5b60200260200101518286611aa2565b6040517f38ed173900000000000000000000000000000000000000000000000000000000815273ffffffffffffffffffffffffffffffffffffffff8216906338ed1739906116b1908790600190889030904290600401612b1f565b600060405180830381600087803b1580156116cb57600080fd5b505af11580156116df573d6000803e3d6000fd5b505050506040513d6000823e601f3d9081017fffffffffffffffffffffffffffffffffffffffffffffffffffffffffffffffe016820160405261172591908101906121cf565b60018151811061175e577f4e487b7100000000000000000000000000000000000000000000000000000000600052603260045260246000fd5b60200260200101519150509392505050565b6000806000808680602001905181019061178a91906120ca565b6040805160018082528183019092529396509194509250600091906020808301908036833701905050905083816000815181106117f0577f4e487b7100000000000000000000000000000000000000000000000000000000600052603260045260246000fd5b602002602001019073ffffffffffffffffffffffffffffffffffffffff16908173ffffffffffffffffffffffffffffffffffffffff1681525050600086600081518110611866577f4e487b7100000000000000000000000000000000000000000000000000000000600052603260045260246000fd5b602002602001015173ffffffffffffffffffffffffffffffffffffffff168573ffffffffffffffffffffffffffffffffffffffff16634a248d2a6040518163ffffffff1660e01b815260040160206040518083038186803b1580156118ca57600080fd5b505afa1580156118de573d6000803e3d6000fd5b505050506040513d601f19601f8201168201806040525081019061190291906120ac565b73ffffffffffffffffffffffffffffffffffffffff1614611924576001611927565b60005b60ff16905061197887600081518110611969577f4e487b7100000000000000000000000000000000000000000000000000000000600052603260045260246000fd5b6020026020010151858a611aa2565b8273ffffffffffffffffffffffffffffffffffffffff1663f87dc1b7886000815181106119ce577f4e487b7100000000000000000000000000000000000000000000000000000000600052603260045260246000fd5b602002602001015189600181518110611a10577f4e487b7100000000000000000000000000000000000000000000000000000000600052603260045260246000fd5b60200260200101518b600187876000426040518963ffffffff1660e01b8152600401611a43989796959493929190612994565b602060405180830381600087803b158015611a5d57600080fd5b505af1158015611a71573d6000803e3d6000fd5b505050506040513d601f19601f82011682018060405250810190611a9591906122cf565b9998505050505050505050565b6040517f095ea7b300000000000000000000000000000000000000000000000000000000815273ffffffffffffffffffffffffffffffffffffffff84169063095ea7b390611af69085908590600401612a05565b602060405180830381600087803b158015611b1057600080fd5b505af1158015611b24573d6000803e3d6000fd5b505050506040513d601f19601f82011682018060405250810190611b489190612204565b610945576040517f08c379a000000000000000000000000000000000000000000000000000000000815260040161016390612a61565b6000611b91611b8c84612bc8565b612bac565b90508083825260208201905082856020860282011115611bb057600080fd5b60005b85811015611bdc5781611bc68882611d5e565b8452506020928301929190910190600101611bb3565b5050509392505050565b6000611bf4611b8c84612bc8565b90508083825260208201905082856020860282011115611c1357600080fd5b60005b85811015611bdc57813567ffffffffffffffff811115611c3557600080fd5b808601611c428982611f7a565b855250506020928301929190910190600101611c16565b6000611c67611b8c84612bc8565b90508083825260208201905082856020860282011115611c8657600080fd5b60005b85811015611bdc57813567ffffffffffffffff811115611ca857600080fd5b808601611cb58982611ff9565b855250506020928301929190910190600101611c89565b6000611cda611b8c84612bc8565b90508083825260208201905082856020860282011115611cf957600080fd5b60005b85811015611bdc5781611d0f8882612078565b8452506020928301929190910190600101611cfc565b6000611d33611b8c84612bec565b905082815260208101848484011115611d4b57600080fd5b611d56848285612ce0565b509392505050565b803561138581612e29565b805161138581612e29565b600082601f830112611d8557600080fd5b8135611d95848260208601611b7e565b949350505050565b600082601f830112611dae57600080fd5b8135611d95848260208601611be6565b600082601f830112611dcf57600080fd5b8135611d95848260208601611c59565b600082601f830112611df057600080fd5b8151611d95848260208601611ccc565b805161138581612e3d565b60008083601f840112611e1d57600080fd5b50813567ffffffffffffffff811115611e3557600080fd5b602083019150836001820283011115611e4d57600080fd5b9250929050565b600082601f830112611e6557600080fd5b8135611d95848260208601611d25565b803561138581612e45565b600060808284031215611e9257600080fd5b611e9c6080612bac565b90506000611eaa8484611d5e565b8252506020611ebb84848301611d5e565b6020830152506040611ecf8482850161206d565b604083015250606082013567ffffffffffffffff811115611eef57600080fd5b611efb84828501611dbe565b60608301525092915050565b600060608284031215611f1957600080fd5b611f236060612bac565b90506000611f318484611d5e565b8252506020611f428484830161206d565b602083015250604082013567ffffffffffffffff811115611f6257600080fd5b611f6e84828501611dbe565b60408301525092915050565b600060608284031215611f8c57600080fd5b611f966060612bac565b90506000611fa48484612083565b825250602082013567ffffffffffffffff811115611fc157600080fd5b611fcd84828501611e54565b602083015250604082013567ffffffffffffffff811115611fed57600080fd5b611f6e84828501611d74565b60006040828403121561200b57600080fd5b6120156040612bac565b9050813567ffffffffffffffff81111561202e57600080fd5b61203a84828501611d9d565b825250602061204b84848301612057565b60208301525092915050565b803561138581612e4e565b805161138581612e58565b803561138581612e63565b805161138581612e63565b803561138581612e69565b6000602082840312156120a057600080fd5b6000611d958484611d5e565b6000602082840312156120be57600080fd5b6000611d958484611d69565b6000806000606084860312156120df57600080fd5b60006120eb8686611d69565b93505060206120fc86828701611d69565b925050604061210d86828701611d69565b9150509250925092565b6000806040838503121561212a57600080fd5b60006121368585611d69565b925050602061214785828601612062565b9150509250929050565b60008060008060006080868803121561216957600080fd5b60006121758888611d5e565b95505060206121868882890161206d565b94505060406121978882890161206d565b935050606086013567ffffffffffffffff8111156121b457600080fd5b6121c088828901611e0b565b92509250509295509295909350565b6000602082840312156121e157600080fd5b815167ffffffffffffffff8111156121f857600080fd5b611d9584828501611ddf565b60006020828403121561221657600080fd5b6000611d958484611e00565b60008060006060848603121561223757600080fd5b60006122438686611e75565b935050602061225486828701611d5e565b925050604061210d8682870161206d565b60006020828403121561227757600080fd5b813567ffffffffffffffff81111561228e57600080fd5b611d9584828501611e80565b6000602082840312156122ac57600080fd5b813567ffffffffffffffff8111156122c357600080fd5b611d9584828501611f07565b6000602082840312156122e157600080fd5b6000611d958484612078565b60006122f98383612319565b505060200190565b600061119583836128c7565b6000611195838361290d565b61232281612caf565b82525050565b6000612332825190565b80845260209384019383018060005b8381101561236657815161235588826122ed565b975060208301925050600101612341565b509495945050505050565b600061237b825190565b80845260209384019383018060005b8381101561236657815161239e88826122ed565b97506020830192505060010161238a565b60006123b9825190565b808452602084019350836020820285016123d38560200190565b8060005b8581101561240857848403895281516123f08582612301565b94506020830160209a909a01999250506001016123d7565b5091979650505050505050565b600061241f825190565b808452602084019350836020820285016124398560200190565b8060005b858110156124085784840389528151612456858261230d565b94506020830160209a909a019992505060010161243d565b801515612322565b6000612480825190565b808452602084019350612497818560208601612cec565b601f017fffffffffffffffffffffffffffffffffffffffffffffffffffffffffffffffe0169290920192915050565b60006124d0825190565b6124de818560208601612cec565b9290920192915050565b61232281612cd8565b602681526000602082017f4f776e61626c653a206e6577206f776e657220697320746865207a65726f206181527f6464726573730000000000000000000000000000000000000000000000000000602082015291505b5060400190565b601b81526000602082017f4661696c656420746f20626f72726f77206c6f616e20746f6b656e0000000000815291505b5060200190565b602681526000602082017f416464726573733a20696e73756666696369656e742062616c616e636520666f81527f722063616c6c000000000000000000000000000000000000000000000000000060208201529150612547565b600e81526000602082017f617070726f7665206661696c65640000000000000000000000000000000000008152915061257e565b601081526000602082017f4e6f7420656e6f75676820746f6b656e000000000000000000000000000000008152915061257e565b60208082527f4f776e61626c653a2063616c6c6572206973206e6f7420746865206f776e65729101908152600061257e565b60208082527f4e6f7420656e6f75676820616d6f756e7420746f2072657475726e206c6f616e9101908152600061257e565b601d81526000602082017f416464726573733a2063616c6c20746f206e6f6e2d636f6e74726163740000008152915061257e565b601c81526000602082017f57726f6e6720666c6173686c6f616e20706f6f6c2061646472657373000000008152915061257e565b602a81526000602082017f5361666545524332303a204552433230206f7065726174696f6e20646964206e81527f6f7420737563636565640000000000000000000000000000000000000000000060208201529150612547565b601f81526000602082017f5265656e7472616e637947756172643a207265656e7472616e742063616c6c008152915061257e565b601081526000602082017f526f7574652070617274206572726f72000000000000000000000000000000008152915061257e565b80516101008301906127e78482612319565b5060208201516127fa6020850182612319565b50604082015161280d6040850182612960565b5060608201516128206060850182612319565b506080820151612833608085018261296b565b5060a082015161284660a085018261296b565b5060c082015161285960c085018261296b565b5060e082015161122960e085018261293a565b805160009060808401906128808582612319565b5060208301516128936020860182612319565b5060408301516128a6604086018261296b565b50606083015184820360608601526128be8282612415565b95945050505050565b805160009060608401906128db8582612971565b50602083015184820360208601526128f38282612476565b915050604083015184820360408601526128be8282612328565b805160408084526000919084019061292582826123af565b9150506020830151611d566020860182612956565b73ffffffffffffffffffffffffffffffffffffffff8116612322565b61ffff8116612322565b62ffffff8116612322565b80612322565b60ff8116612322565b600061119582846124c6565b602081016113858284612319565b61010081016129a3828b612319565b6129b0602083018a612319565b6129bd604083018961296b565b6129ca60608301886124e8565b81810360808301526129dc8187612371565b90506129eb60a083018661296b565b6129f860c083018561246e565b611a9560e083018461296b565b60408101612a138285612319565b611195602083018461296b565b602080825281016111958184612476565b60208082528101611385816124f1565b602080825281016113858161254e565b6020808252810161138581612585565b60208082528101611385816125df565b6020808252810161138581612613565b6020808252810161138581612647565b6020808252810161138581612679565b60208082528101611385816126ab565b60208082528101611385816126df565b6020808252810161138581612713565b602080825281016113858161276d565b60208082528101611385816127a1565b610100810161138582846127d5565b60208082528101611195818461286c565b60208101611385828461296b565b60a08101612b2d828861296b565b612b3a60208301876124e8565b8181036040830152612b4c8186612371565b9050612b5b6060830185612319565b612b68608083018461296b565b9695505050505050565b60808101612b80828761296b565b612b8d602083018661296b565b612b9a6040830185612319565b8181036060830152612b688184612476565b6000612bb760405190565b9050612bc38282612d18565b919050565b600067ffffffffffffffff821115612be257612be2612dfa565b5060209081020190565b600067ffffffffffffffff821115612c0657612c06612dfa565b7fffffffffffffffffffffffffffffffffffffffffffffffffffffffffffffffe0601f83011660200192915050565b600061ffff8216915061ffff831692508261ffff03821115612c5957612c59612d9c565b500190565b600082612c6d57612c6d612dcb565b500490565b6000817fffffffffffffffffffffffffffffffffffffffffffffffffffffffffffffffff0483118215151615612caa57612caa612d9c565b500290565b600073ffffffffffffffffffffffffffffffffffffffff8216611385565b600061138582612caf565b600081611385565b82818337506000910152565b60005b83811015612d07578181015183820152602001612cef565b838111156112295750506000910152565b7fffffffffffffffffffffffffffffffffffffffffffffffffffffffffffffffe0601f830116810181811067ffffffffffffffff82111715612d5c57612d5c612dfa565b6040525050565b60007fffffffffffffffffffffffffffffffffffffffffffffffffffffffffffffffff821415612d9557612d95612d9c565b5060010190565b7f4e487b7100000000000000000000000000000000000000000000000000000000600052601160045260246000fd5b7f4e487b7100000000000000000000000000000000000000000000000000000000600052601260045260246000fd5b7f4e487b7100000000000000000000000000000000000000000000000000000000600052604160045260246000fd5b612e3281612caf565b81146108a157600080fd5b801515612e32565b612e3281612ccd565b61ffff8116612e32565b62ffffff8116612e32565b80612e32565b60ff8116612e3256fea26469706673582212205913aed1ccce195eb898f1480e6dce94be3b6bff7c3bf29420505fd278b9fda264736f6c63430008040033",
  "linkReferences": {},
  "deployedLinkReferences": {}
}