{
  "_format": "hh-sol-artifact-1",
  "contractName": "Flashloan",
  "sourceName": "contracts/Flashloan.sol",
  "abi": [
    {
      "anonymous": false,
      "inputs": [
        {
          "indexed": true,
          "internalType": "address",
          "name": "previousOwner",
          "type": "address"
        },
        {
          "indexed": true,
          "internalType": "address",
          "name": "newOwner",
          "type": "address"
        }
      ],
      "name": "OwnershipTransferred",
      "type": "event"
    },
    {
      "anonymous": false,
      "inputs": [
        {
          "indexed": false,
          "internalType": "address",
          "name": "recipient",
          "type": "address"
        },
        {
          "indexed": false,
          "internalType": "uint256",
          "name": "profit",
          "type": "uint256"
        }
      ],
      "name": "SentProfit",
      "type": "event"
    },
    {
      "anonymous": false,
      "inputs": [
        {
          "indexed": false,
          "internalType": "address",
          "name": "token",
          "type": "address"
        },
        {
          "indexed": false,
          "internalType": "uint256",
          "name": "amount",
          "type": "uint256"
        }
      ],
      "name": "SwapFinished",
      "type": "event"
    },
    {
      "anonymous": false,
      "inputs": [
        {
          "indexed": true,
          "internalType": "address",
          "name": "sender",
          "type": "address"
        },
        {
          "indexed": false,
          "internalType": "uint256",
          "name": "amount",
          "type": "uint256"
        }
      ],
      "name": "Withdrawal",
      "type": "event"
    },
    {
      "inputs": [
        {
          "internalType": "address",
          "name": "sender",
          "type": "address"
        },
        {
          "internalType": "uint256",
          "name": "baseAmount",
          "type": "uint256"
        },
        {
          "internalType": "uint256",
          "name": "quoteAmount",
          "type": "uint256"
        },
        {
          "internalType": "bytes",
          "name": "data",
          "type": "bytes"
        }
      ],
      "name": "DPPFlashLoanCall",
      "outputs": [],
      "stateMutability": "nonpayable",
      "type": "function"
    },
    {
      "inputs": [
        {
          "internalType": "address",
          "name": "sender",
          "type": "address"
        },
        {
          "internalType": "uint256",
          "name": "baseAmount",
          "type": "uint256"
        },
        {
          "internalType": "uint256",
          "name": "quoteAmount",
          "type": "uint256"
        },
        {
          "internalType": "bytes",
          "name": "data",
          "type": "bytes"
        }
      ],
      "name": "DSPFlashLoanCall",
      "outputs": [],
      "stateMutability": "nonpayable",
      "type": "function"
    },
    {
      "inputs": [
        {
          "internalType": "address",
          "name": "sender",
          "type": "address"
        },
        {
          "internalType": "uint256",
          "name": "baseAmount",
          "type": "uint256"
        },
        {
          "internalType": "uint256",
          "name": "quoteAmount",
          "type": "uint256"
        },
        {
          "internalType": "bytes",
          "name": "data",
          "type": "bytes"
        }
      ],
      "name": "DVMFlashLoanCall",
      "outputs": [],
      "stateMutability": "nonpayable",
      "type": "function"
    },
    {
      "inputs": [
        {
          "components": [
            {
              "internalType": "address",
              "name": "flashLoanPool",
              "type": "address"
            },
            {
              "internalType": "uint256",
              "name": "loanAmount",
              "type": "uint256"
            },
            {
              "components": [
                {
                  "components": [
                    {
                      "internalType": "uint8",
                      "name": "protocol",
                      "type": "uint8"
                    },
                    {
                      "internalType": "bytes",
                      "name": "data",
                      "type": "bytes"
                    },
                    {
                      "internalType": "address[]",
                      "name": "path",
                      "type": "address[]"
                    }
                  ],
                  "internalType": "struct IFlashloan.Hop[]",
                  "name": "hops",
                  "type": "tuple[]"
                },
                {
                  "internalType": "uint16",
                  "name": "part",
                  "type": "uint16"
                }
              ],
              "internalType": "struct IFlashloan.Route[]",
              "name": "routes",
              "type": "tuple[]"
            }
          ],
          "internalType": "struct IFlashloan.FlashParams",
          "name": "params",
          "type": "tuple"
        }
      ],
      "name": "dodoFlashLoan",
      "outputs": [],
      "stateMutability": "nonpayable",
      "type": "function"
    },
    {
      "inputs": [],
      "name": "owner",
      "outputs": [
        {
          "internalType": "address",
          "name": "",
          "type": "address"
        }
      ],
      "stateMutability": "view",
      "type": "function"
    },
    {
      "inputs": [],
      "name": "renounceOwnership",
      "outputs": [],
      "stateMutability": "nonpayable",
      "type": "function"
    },
    {
      "inputs": [
        {
          "internalType": "address",
          "name": "newOwner",
          "type": "address"
        }
      ],
      "name": "transferOwnership",
      "outputs": [],
      "stateMutability": "nonpayable",
      "type": "function"
    },
    {
      "inputs": [
        {
          "internalType": "contract IERC20",
          "name": "token",
          "type": "address"
        },
        {
          "internalType": "address",
          "name": "_to",
          "type": "address"
        },
        {
          "internalType": "uint256",
          "name": "_value",
          "type": "uint256"
        }
      ],
      "name": "withdrawToken",
      "outputs": [],
      "stateMutability": "nonpayable",
      "type": "function"
    }
  ],
  "bytecode": "0x608060405234801561001057600080fd5b5061001a33610023565b60018055610073565b600080546001600160a01b038381166001600160a01b0319831681178455604051919092169283917f8be0079c531659141344cd1fd0a4f28419497f9722a3daafe3b4186f6b6457e09190a35050565b612737806100826000396000f3fe608060405234801561001057600080fd5b50600436106100885760003560e01c80638da5cb5b1161005b5780638da5cb5b146100d0578063d5b99797146100bd578063eb2021c3146100bd578063f2fde38b146100f257600080fd5b806301e336671461008d5780630cdabeba146100a2578063715018a6146100b55780637ed1f1dd146100bd575b600080fd5b6100a061009b3660046115a4565b610105565b005b6100a06100b0366004611a3b565b610205565b6100a0610548565b6100a06100cb366004611ac6565b61055c565b6000546001600160a01b03166040516100e99190611b58565b60405180910390f35b6100a0610100366004611b66565b610570565b61010d6105aa565b6101156105d4565b6040516370a0823160e01b815281906001600160a01b038516906370a0823190610143903090600401611b58565b602060405180830381865afa158015610160573d6000803e3d6000fd5b505050506040513d601f19601f820116820180604052508101906101849190611b92565b10156101ab5760405162461bcd60e51b81526004016101a290611bdd565b60405180910390fd5b6101b68383836105fd565b816001600160a01b03167f7fcf532c15f0a6db0bd6d0e038bea71d30d808c7d98cb3bf7268a95bf5081b65826040516101ef9190611bf3565b60405180910390a261020060018055565b505050565b80600061022f826040015160008151811061022257610222611c01565b6020026020010151610653565b9050600082600001516001600160a01b0316634a248d2a6040518163ffffffff1660e01b8152600401602060405180830381865afa158015610275573d6000803e3d6000fd5b505050506040513d601f19601f820116820180604052508101906102999190611c22565b6001600160a01b0316826001600160a01b0316149050600083600001516001600160a01b031663d4b970466040518163ffffffff1660e01b8152600401602060405180830381865afa1580156102f3573d6000803e3d6000fd5b505050506040513d601f19601f820116820180604052508101906103179190611c22565b6001600160a01b0316836001600160a01b031614905081806103365750805b6103525760405162461bcd60e51b81526004016101a290611c77565b6040805160808101825233815286516001600160a01b031660208083019190915287810151828401528783015160608301529151600092610394929101611ef2565b604051602081830303815290604052905060006103c1876040015160008151811061022257610222611c01565b905086600001516001600160a01b031663d0a494e4826001600160a01b031689600001516001600160a01b0316634a248d2a6040518163ffffffff1660e01b8152600401602060405180830381865afa158015610422573d6000803e3d6000fd5b505050506040513d601f19601f820116820180604052508101906104469190611c22565b6001600160a01b03161461045b576000610461565b88602001515b836001600160a01b03168a600001516001600160a01b0316634a248d2a6040518163ffffffff1660e01b8152600401602060405180830381865afa1580156104ad573d6000803e3d6000fd5b505050506040513d601f19601f820116820180604052508101906104d19190611c22565b6001600160a01b0316146104e95789602001516104ec565b60005b30866040518563ffffffff1660e01b815260040161050d9493929190611f03565b600060405180830381600087803b15801561052757600080fd5b505af115801561053b573d6000803e3d6000fd5b5050505050505050505050565b6105506105aa565b61055a6000610699565b565b61056985858585856106e9565b5050505050565b6105786105aa565b6001600160a01b03811661059e5760405162461bcd60e51b81526004016101a290611f8d565b6105a781610699565b50565b6000546001600160a01b0316331461055a5760405162461bcd60e51b81526004016101a290611fcf565b6002600154036105f65760405162461bcd60e51b81526004016101a290612013565b6002600155565b6102008363a9059cbb60e01b848460405160240161061c929190612023565b60408051601f198184030181529190526020810180516001600160e01b03166001600160e01b031990931692909217909152610a8f565b6000816000015160008151811061066c5761066c611c01565b60200260200101516040015160008151811061068a5761068a611c01565b60200260200101519050919050565b600080546001600160a01b038381166001600160a01b0319831681178455604051919092169283917f8be0079c531659141344cd1fd0a4f28419497f9722a3daafe3b4186f6b6457e09190a35050565b60006106f7828401846120ca565b90506000610715826060015160008151811061022257610222611c01565b90508160400151816001600160a01b03166370a08231306040518263ffffffff1660e01b81526004016107489190611b58565b602060405180830381865afa158015610765573d6000803e3d6000fd5b505050506040513d601f19601f820116820180604052508101906107899190611b92565b10156107a75760405162461bcd60e51b81526004016101a290612138565b6107b982606001518360400151610b1e565b7ffdc1bd83776f7aa310fcf2b1915ae1c6c16a4cfb48ebcea2bf15febd084c03de81826001600160a01b03166370a08231306040518263ffffffff1660e01b81526004016108079190611b58565b602060405180830381865afa158015610824573d6000803e3d6000fd5b505050506040513d601f19601f820116820180604052508101906108489190611b92565b604051610856929190612023565b60405180910390a160408083015190516370a0823160e01b81526001600160a01b038316906370a082319061088f903090600401611b58565b602060405180830381865afa1580156108ac573d6000803e3d6000fd5b505050506040513d601f19601f820116820180604052508101906108d09190611b92565b10156108ee5760405162461bcd60e51b81526004016101a29061217a565b6020820151604080840151905163a9059cbb60e01b81526001600160a01b0384169263a9059cbb9261092292600401612023565b6020604051808303816000875af1158015610941573d6000803e3d6000fd5b505050506040513d601f19601f82011682018060405250810190610965919061219d565b506040516370a0823160e01b81526000906001600160a01b038316906370a0823190610995903090600401611b58565b602060405180830381865afa1580156109b2573d6000803e3d6000fd5b505050506040513d601f19601f820116820180604052508101906109d69190611b92565b835160405163a9059cbb60e01b81529192506001600160a01b0384169163a9059cbb91610a07918590600401612023565b6020604051808303816000875af1158015610a26573d6000803e3d6000fd5b505050506040513d601f19601f82011682018060405250810190610a4a919061219d565b5082516040517f2b312ac7b7c9b2fc53c9398d48ed2df4c1d192a03cc090b47087b2936ba0a61f91610a7d918490612023565b60405180910390a15050505050505050565b6000610ae4826040518060400160405280602081526020017f5361666545524332303a206c6f772d6c6576656c2063616c6c206661696c6564815250856001600160a01b0316610bfc9092919063ffffffff16565b8051909150156102005780806020019051810190610b02919061219d565b6102005760405162461bcd60e51b81526004016101a290612205565b816000805b8251811015610b6957828181518110610b3e57610b3e611c01565b60200260200101516020015182610b55919061222b565b915080610b6181612249565b915050610b23565b508061ffff1661271014610b8f5760405162461bcd60e51b81526004016101a29061228a565b60005b8451811015610569576000610bc4868381518110610bb257610bb2611c01565b60200260200101516020015186610c15565b9050610be9868381518110610bdb57610bdb611c01565b602002602001015182610c32565b5080610bf481612249565b915050610b92565b6060610c0b8484600085610c81565b90505b9392505050565b6000612710610c2861ffff85168461229a565b610c0e91906122cf565b8060005b835151811015610c7b57610c6784600001518281518110610c5957610c59611c01565b602002602001015183610d1f565b915080610c7381612249565b915050610c36565b50505050565b606082471015610ca35760405162461bcd60e51b81526004016101a290612326565b600080866001600160a01b03168587604051610cbf9190612358565b60006040518083038185875af1925050503d8060008114610cfc576040519150601f19603f3d011682016040523d82523d6000602084013e610d01565b606091505b5091509150610d1287838387610d7f565b925050505b949350505050565b815160009060ff168103610d4757610d408360200151838560400151610dc8565b9050610d79565b825160ff16600103610d6657610d408360200151838560400151610fd5565b610c0e836020015183856040015161112e565b92915050565b60608315610dbe578251600003610db7576001600160a01b0385163b610db75760405162461bcd60e51b81526004016101a290612398565b5081610d17565b610d178383611331565b60008084806020019051810190610ddf9190611c22565b9050610e0683600081518110610df757610df7611c01565b6020026020010151828661135b565b6000819050610e308585600081518110610e2257610e22611c01565b6020026020010151836113e8565b9250806001600160a01b031663022c0d9f826001600160a01b0316630dfe16816040518163ffffffff1660e01b8152600401602060405180830381865afa158015610e7f573d6000803e3d6000fd5b505050506040513d601f19601f82011682018060405250810190610ea39190611c22565b6001600160a01b031686600081518110610ebf57610ebf611c01565b60200260200101516001600160a01b031614610edb5784610ede565b60005b836001600160a01b031663d21220a76040518163ffffffff1660e01b8152600401602060405180830381865afa158015610f1c573d6000803e3d6000fd5b505050506040513d601f19601f82011682018060405250810190610f409190611c22565b6001600160a01b031687600081518110610f5c57610f5c611c01565b60200260200101516001600160a01b031614610f785785610f7b565b60005b306040518463ffffffff1660e01b8152600401610f9a939291906123a8565b600060405180830381600087803b158015610fb457600080fd5b505af1158015610fc8573d6000803e3d6000fd5b5050505050509392505050565b600080600085806020019051810190610fee91906123fb565b91509150600082905061101c8560008151811061100d5761100d611c01565b6020026020010151828861135b565b806001600160a01b031663414bf3896040518061010001604052808860008151811061104a5761104a611c01565b60200260200101516001600160a01b031681526020018860018151811061107357611073611c01565b60200260200101516001600160a01b031681526020018562ffffff168152602001306001600160a01b031681526020014281526020018981526020016000815260200160006001600160a01b03168152506040518263ffffffff1660e01b81526004016110e091906124e9565b6020604051808303816000875af11580156110ff573d6000803e3d6000fd5b505050506040513d601f19601f820116820180604052508101906111239190611b92565b979650505050505050565b6000806000808680602001905181019061114891906124f8565b60408051600180825281830190925293965091945092506000919060208083019080368337019050509050838160008151811061118757611187611c01565b60200260200101906001600160a01b031690816001600160a01b0316815250506000866000815181106111bc576111bc611c01565b60200260200101516001600160a01b0316856001600160a01b0316634a248d2a6040518163ffffffff1660e01b8152600401602060405180830381865afa15801561120b573d6000803e3d6000fd5b505050506040513d601f19601f8201168201806040525081019061122f9190611c22565b6001600160a01b031614611244576001611247565b60005b60ff1690506112718760008151811061126257611262611c01565b6020026020010151858a61135b565b826001600160a01b031663f87dc1b78860008151811061129357611293611c01565b6020026020010151896001815181106112ae576112ae611c01565b60200260200101518b600187876000426040518963ffffffff1660e01b81526004016112e198979695949392919061259c565b6020604051808303816000875af1158015611300573d6000803e3d6000fd5b505050506040513d601f19601f820116820180604052508101906113249190611b92565b9998505050505050505050565b8151156113415781518083602001fd5b8060405162461bcd60e51b81526004016101a2919061260d565b60405163095ea7b360e01b81526001600160a01b0384169063095ea7b3906113899085908590600401612023565b6020604051808303816000875af11580156113a8573d6000803e3d6000fd5b505050506040513d601f19601f820116820180604052508101906113cc919061219d565b6102005760405162461bcd60e51b81526004016101a290612643565b6000806000836001600160a01b0316630902f1ac6040518163ffffffff1660e01b8152600401606060405180830381865afa15801561142b573d6000803e3d6000fd5b505050506040513d601f19601f8201168201806040525081019061144f9190612684565b5091509150600080856001600160a01b0316630dfe16816040518163ffffffff1660e01b8152600401602060405180830381865afa158015611495573d6000803e3d6000fd5b505050506040513d601f19601f820116820180604052508101906114b99190611c22565b6001600160a01b0316876001600160a01b0316036114e65750506001600160701b038083169082166114f7565b50506001600160701b038082169083165b6000821180156115075750600081115b6115235760405162461bcd60e51b81526004016101a2906126f1565b8161152e828a61229a565b61153891906122cf565b98975050505050505050565b60006001600160a01b038216610d79565b6000610d7982611544565b61156981611555565b81146105a757600080fd5b8035610d7981611560565b61156981611544565b8035610d798161157f565b80611569565b8035610d7981611593565b6000806000606084860312156115bc576115bc600080fd5b60006115c88686611574565b93505060206115d986828701611588565b92505060406115ea86828701611599565b9150509250925092565b634e487b7160e01b600052604160045260246000fd5b601f19601f83011681018181106001600160401b038211171561162f5761162f6115f4565b6040525050565b600061164160405190565b905061164d828261160a565b919050565b60006001600160401b0382111561166b5761166b6115f4565b5060209081020190565b60ff8116611569565b8035610d7981611675565b60006001600160401b038211156116a2576116a26115f4565b601f19601f83011660200192915050565b82818337506000910152565b60006116d26116cd84611689565b611636565b9050828152602081018484840111156116ed576116ed600080fd5b6116f88482856116b3565b509392505050565b600082601f83011261171457611714600080fd5b8135610d178482602086016116bf565b60006117326116cd84611652565b8381529050602080820190840283018581111561175157611751600080fd5b835b8181101561177557806117668882611588565b84525060209283019201611753565b5050509392505050565b600082601f83011261179357611793600080fd5b8135610d17848260208601611724565b6000606082840312156117b8576117b8600080fd5b6117c26060611636565b905060006117d0848461167e565b82525060208201356001600160401b038111156117ef576117ef600080fd5b6117fb84828501611700565b60208301525060408201356001600160401b0381111561181d5761181d600080fd5b6118298482850161177f565b60408301525092915050565b60006118436116cd84611652565b8381529050602080820190840283018581111561186257611862600080fd5b835b818110156117755780356001600160401b0381111561188557611885600080fd5b80860161189289826117a3565b8552505060209283019201611864565b600082601f8301126118b6576118b6600080fd5b8135610d17848260208601611835565b61ffff8116611569565b8035610d79816118c6565b6000604082840312156118f0576118f0600080fd5b6118fa6040611636565b905081356001600160401b0381111561191557611915600080fd5b611921848285016118a2565b8252506020611932848483016118d0565b60208301525092915050565b600061194c6116cd84611652565b8381529050602080820190840283018581111561196b5761196b600080fd5b835b818110156117755780356001600160401b0381111561198e5761198e600080fd5b80860161199b89826118db565b855250506020928301920161196d565b600082601f8301126119bf576119bf600080fd5b8135610d1784826020860161193e565b6000606082840312156119e4576119e4600080fd5b6119ee6060611636565b905060006119fc8484611588565b8252506020611a0d84848301611599565b60208301525060408201356001600160401b03811115611a2f57611a2f600080fd5b611829848285016119ab565b600060208284031215611a5057611a50600080fd5b81356001600160401b03811115611a6957611a69600080fd5b610d17848285016119cf565b60008083601f840112611a8a57611a8a600080fd5b5081356001600160401b03811115611aa457611aa4600080fd5b602083019150836001820283011115611abf57611abf600080fd5b9250929050565b600080600080600060808688031215611ae157611ae1600080fd5b6000611aed8888611588565b9550506020611afe88828901611599565b9450506040611b0f88828901611599565b93505060608601356001600160401b03811115611b2e57611b2e600080fd5b611b3a88828901611a75565b92509250509295509295909350565b611b5281611544565b82525050565b60208101610d798284611b49565b600060208284031215611b7b57611b7b600080fd5b6000610d178484611588565b8051610d7981611593565b600060208284031215611ba757611ba7600080fd5b6000610d178484611b87565b601081526000602082016f2737ba1032b737bab3b4103a37b5b2b760811b815291505b5060200190565b60208082528101610d7981611bb3565b80611b52565b60208101610d798284611bed565b634e487b7160e01b600052603260045260246000fd5b8051610d798161157f565b600060208284031215611c3757611c37600080fd5b6000610d178484611c17565b601c81526000602082017f57726f6e6720666c6173686c6f616e20706f6f6c20616464726573730000000081529150611bd6565b60208082528101610d7981611c43565b60ff8116611b52565b60005b83811015611cab578181015183820152602001611c93565b50506000910152565b6000611cbe825190565b808452602084019350611cd5818560208601611c90565b601f01601f19169290920192915050565b6000611cf28383611b49565b505060200190565b6000611d04825190565b80845260209384019383018060005b83811015611d38578151611d278882611ce6565b975060208301925050600101611d13565b509495945050505050565b80516000906060840190611d578582611c87565b5060208301518482036020860152611d6f8282611cb4565b91505060408301518482036040860152611d898282611cfa565b95945050505050565b6000610c0e8383611d43565b6000611da8825190565b80845260208401935083602082028501611dc28560200190565b8060005b85811015611df75784840389528151611ddf8582611d92565b94506020830160209a909a0199925050600101611dc6565b5091979650505050505050565b61ffff8116611b52565b8051604080845260009190840190611e268282611d9e565b91505060208301516116f86020860182611e04565b6000610c0e8383611e0e565b6000611e51825190565b80845260208401935083602082028501611e6b8560200190565b8060005b85811015611df75784840389528151611e888582611e3b565b94506020830160209a909a0199925050600101611e6f565b80516000906080840190611eb48582611b49565b506020830151611ec76020860182611b49565b506040830151611eda6040860182611bed565b5060608301518482036060860152611d898282611e47565b60208082528101610c0e8184611ea0565b60808101611f118287611bed565b611f1e6020830186611bed565b611f2b6040830185611b49565b8181036060830152611f3d8184611cb4565b9695505050505050565b602681526000602082017f4f776e61626c653a206e6577206f776e657220697320746865207a65726f206181526564647265737360d01b602082015291505b5060400190565b60208082528101610d7981611f47565b60208082527f4f776e61626c653a2063616c6c6572206973206e6f7420746865206f776e657291019081526000611bd6565b60208082528101610d7981611f9d565b601f81526000602082017f5265656e7472616e637947756172643a207265656e7472616e742063616c6c0081529150611bd6565b60208082528101610d7981611fdf565b604081016120318285611b49565b610c0e6020830184611bed565b60006080828403121561205357612053600080fd5b61205d6080611636565b9050600061206b8484611588565b825250602061207c84848301611588565b602083015250604061209084828501611599565b60408301525060608201356001600160401b038111156120b2576120b2600080fd5b6120be848285016119ab565b60608301525092915050565b6000602082840312156120df576120df600080fd5b81356001600160401b038111156120f8576120f8600080fd5b610d178482850161203e565b601b81526000602082017f4661696c656420746f20626f72726f77206c6f616e20746f6b656e000000000081529150611bd6565b60208082528101610d7981612104565b60208082527f4e6f7420656e6f75676820616d6f756e7420746f2072657475726e206c6f616e91019081526000611bd6565b60208082528101610d7981612148565b801515611569565b8051610d798161218a565b6000602082840312156121b2576121b2600080fd5b6000610d178484612192565b602a81526000602082017f5361666545524332303a204552433230206f7065726174696f6e20646964206e8152691bdd081cdd58d8d9595960b21b60208201529150611f86565b60208082528101610d79816121be565b634e487b7160e01b600052601160045260246000fd5b61ffff918216919081169082820190811115610d7957610d79612215565b6000600019820361225c5761225c612215565b5060010190565b601081526000602082016f2937baba32903830b93a1032b93937b960811b81529150611bd6565b60208082528101610d7981612263565b8181028082158382048514176122b2576122b2612215565b5092915050565b634e487b7160e01b600052601260045260246000fd5b6000826122de576122de6122b9565b500490565b602681526000602082017f416464726573733a20696e73756666696369656e742062616c616e636520666f8152651c8818d85b1b60d21b60208201529150611f86565b60208082528101610d79816122e3565b6000612340825190565b61234e818560208601611c90565b9290920192915050565b6000610c0e8284612336565b601d81526000602082017f416464726573733a2063616c6c20746f206e6f6e2d636f6e747261637400000081529150611bd6565b60208082528101610d7981612364565b608081016123b68286611bed565b6123c36020830185611bed565b6123d06040830184611b49565b81810360608301526000815260208101611d89565b62ffffff8116611569565b8051610d79816123e5565b6000806040838503121561241157612411600080fd5b600061241d8585611c17565b925050602061242e858286016123f0565b9150509250929050565b62ffffff8116611b52565b6001600160a01b038116611b52565b80516101008301906124648482611b49565b5060208201516124776020850182611b49565b50604082015161248a6040850182612438565b50606082015161249d6060850182611b49565b5060808201516124b06080850182611bed565b5060a08201516124c360a0850182611bed565b5060c08201516124d660c0850182611bed565b5060e0820151610c7b60e0850182612443565b6101008101610d798284612452565b60008060006060848603121561251057612510600080fd5b600061251c8686611c17565b935050602061252d86828701611c17565b92505060406115ea86828701611c17565b6000610d7961254a8381565b90565b611b528161253e565b6000612560825190565b80845260209384019383018060005b83811015611d385781516125838882611ce6565b97506020830192505060010161256f565b801515611b52565b61010081016125ab828b611b49565b6125b8602083018a611b49565b6125c56040830189611bed565b6125d2606083018861254d565b81810360808301526125e48187612556565b90506125f360a0830186611bed565b61260060c0830185612594565b61132460e0830184611bed565b60208082528101610c0e8184611cb4565b600e81526000602082016d185c1c1c9bdd994819985a5b195960921b81529150611bd6565b60208082528101610d798161261e565b6001600160701b038116611569565b8051610d7981612653565b63ffffffff8116611569565b8051610d798161266d565b60008060006060848603121561269c5761269c600080fd5b60006126a88686612662565b93505060206126b986828701612662565b92505060406115ea86828701612679565b601081526000602082016f496e76616c696420726573657276657360801b81529150611bd6565b60208082528101610d79816126ca56fea2646970667358221220501b7502d1292dbe2f47d22576b5440f1c2c56bdcaa56f7cd3bfd5e872339b5164736f6c63430008120033",
  "linkReferences": {},
  "deployedLinkReferences": {}
}